:070B8100010920020B000036
:100B6500438901758CFC758A18D2A9C28CD2AF2233
:0C0B7500120B65120B13120B89020B9D72
:100B2900120B75120AC97FE8120B04E508C313FFFB
:050B3900120B9780F192
:0300230002099F30
:10099F00C0E0C0F0C083C082C0D075D000C000C01E
:1009AF0001C002C003C004C005C006C007C28CC28C
:1009BF00AC30981F85990A850A08E509B42006AD61
:1009CF000A7F148009E509B43009AD0A7F1E7E0045
:1009DF00120A03C298D2ACD28CD007D006D005D061
:1009EF0004D003D002D001D000D0D0D082D083D099
:0409FF00F0D0E03222
:03000B00020917D0
:10091700C0E0C0F0C083C082C0D075D000C000C0A6
:1009270001C002C003C004C005C006C007C2ACC2F4
:100937008C758CFC758A18E5106401703C050CE514
:100947000C7002050BD394D0E50B64809487401399
:10095700750B00750C00E509B42005750930800397
:10096700750920AE0BAF0C7C007D1E12088CED4C78
:1009770070077D01AF09120B52D28CD2ACD007D0D1
:1009870006D005D004D003D002D001D000D0D0D0FB
:0809970082D083D0F0D0E032E1
:100B3E00010204081020408000C0F9A4B0999282EE
:040B4E00F88090FF9C
:070AFD007E00120AE67F08EB
:0E0B0400EFD394004008007E2BDEFE1F80F22F
:010B120022C0
:100AE600EF900B3E93F580D2A7C2A7ED900B4793EC
:070AF600F580D2A6C2A62282
:060A03008E0D8F0E8D0F19
:100A09007B087A007C007D0A12088CAC06AD07E4ED
:100A1900FFFE120AFFAE0DAF0E7C007D0A12088C94
:100A29007F01120AFDE50F75F06484FD7C007F05E6
:100A3900120AFDE50F75F06484E5F075F00A84FD8E
:100A49007F06120AFDE50F75F00A84E5F0FD7F07C0
:0C0A59007E00120AE60F120B04020AC90C
:100AC900E4FBEBFF7E007D0A7C00120AE60BBB0803
:0C0AD900F1900B46E493F580D2A7C2A771
:010AE50022EE
:100B1300758920758DFD758BFD7598D0C2ACD28E0D
:060B2300D2AFE4F59922B7
:100B5200D29B8F993099FDC299C29B8D993099FD94
:030B6200C2992213
:070B8900D288D2A8D2AF22EE
:03000300020A6589
:100A6500C0E0C0F0C083C082C0D075D000C000C057
:100A750001C002C003C004C005C006C007C2A81259
:100A85000AA4D2A8D007D006D005D004D003D0023E
:0F0A9500D001D000D0D0D082D083D0F0D0E032CA
:100AA40020B2217F01120B04E5107007751001D2EA
:100AB4008C800EE4F510F508C28CF50BF50C120AC7
:050AC400C920B2FD2273
:050B9D007FF0020B9047
:070B9000D2A38F90C2A32243
:060B9700120B90C2A22225
:03000000020800F3
:0C080000787FE4F6D8FD758110020847EF
:10088C00C2D5EC30E709B2D5E4C39DFDE49CFCEE87
:10089C0030E715B2D5E4C39FFFE49EFE1208C2C335
:1008AC00E49DFDE49CFC80031208C230D507C3E430
:0608BC009FFFE49EFE22F6
:10080C00020B29E493A3F8E493A34003F68001F2CE
:10081C0008DFF48029E493A3F85407240CC8C333ED
:10082C00C4540F4420C8834004F456800146F6DFBC
:10083C00E4800B0102040810204080900B81E47EC0
:10084C00019360BCA3FF543F30E509541FFEE493B1
:10085C00A360010ECF54C025E060A840B8E493A378
:10086C00FAE493A3F8E493A3C8C582C8CAC583CAA3
:10087C00F0A3C8C582C8CAC583CADFE9DEE780BE5B
:010B8800006C
:1008C200BC000BBE0029EF8DF084FFADF022E4CC1A
:1008D200F875F008EF2FFFEE33FEEC33FCEE9DECE3
:1008E200984005FCEE9DFE0FD5F0E9E4CEFD22ED29
:1008F200F8F5F0EE8420D21CFEADF075F008EF2F73
:10090200FFED33FD4007985006D5F0F222C398FD63
:050912000FD5F0EA2200
:00000001FF
