:030ACD0001091408
:060ADB00120A88020AD491
:080AC500120ADB120A3E80FE5A
:0300230002097758
:10097700C0E0C0F0C083C082C0D075D000C000C046
:1009870001C002C003C004C005C006C007C2AC3026
:10099700980F85990A850A08AF097E00AD081209E4
:1009A70017C298D2ACD007D006D005D004D003D058
:1009B70002D001D000D0D0D082D083D0F0D0E032A6
:100A9E00010204081020408000C0F9A4B09992828F
:040AAE00F88090FF3D
:070A72007E00120A5B7F0AFF
:0E0A7900EFD394004008007E2BDEFE1F80F2BB
:010A8700224C
:100A5B00EF900A9E93F580D2A7C2A7ED900AA793B9
:070A6B00F580D2A6C2A6220D
:060917008E0B8F0C8D0D0C
:10091D007B0A7A007C007D0A12088CAC06AD07E4D8
:10092D00FFFE120A74AE0BAF0C7C007D0A12088C10
:10093D007F01120A72E50D75F06484FD7C007F0560
:10094D00120A72E50D75F06484E5F075F00A84FD08
:10095D007F06120A72E50D75F00A84E5F0FD7F073A
:0A096D007E00120A5B7F0A020A797D
:100A3E00E4FBEBFF7E007D0A7C00120A5B0BBB0819
:0C0A4E00F1900AA6E493F580D2A7C2A79D
:010A5A002279
:100A8800758920758DFD758BFDD29CD29FD29EC233
:060A9800ACD28ED2AF22A9
:100AB200D29B8F993099FDC299C29B8D993099FD35
:030AC200C29922B4
:030AD000010E0014
:070AD400D288D2A8D2AF22A4
:030003000209C728
:1009C700C0E0C0F0C083C082C0D075D000C000C0F6
:1009D70001C002C003C004C005C006C007C2A812F8
:1009E7000A06D2A8D007D006D005D004D003D0027B
:0F09F700D001D000D0D0D082D083D0F0D0E03269
:100A060020B2347F0A120A7930B2FDE50E7013D295
:100A1600AC750E017D017F14120AB27D017F1E02A4
:100A26000AB2C2ACE4F50EFD7F14120AB2E4FD7FF1
:080A36001E120AB2120A3E2250
:03000000020800F3
:0C080000787FE4F6D8FD75810E020847F1
:10088C00C2D5EC30E709B2D5E4C39DFDE49CFCEE87
:10089C0030E715B2D5E4C39FFFE49EFE1208C2C335
:1008AC00E49DFDE49CFC80031208C230D507C3E430
:0608BC009FFFE49EFE22F6
:10080C00020AC5E493A3F8E493A34003F68001F233
:10081C0008DFF48029E493A3F85407240CC8C333ED
:10082C00C4540F4420C8834004F456800146F6DFBC
:10083C00E4800B0102040810204080900ACDE47E75
:10084C00019360BCA3FF543F30E509541FFEE493B1
:10085C00A360010ECF54C025E060A840B8E493A378
:10086C00FAE493A3F8E493A3C8C582C8CAC583CAA3
:10087C00F0A3C8C582C8CAC583CADFE9DEE780BE5B
:010AD3000022
:1008C200BC000BBE0029EF8DF084FFADF022E4CC1A
:1008D200F875F008EF2FFFEE33FEEC33FCEE9DECE3
:1008E200984005FCEE9DFE0FD5F0E9E4CEFD22ED29
:1008F200F8F5F0EE8420D21CFEADF075F008EF2F73
:10090200FFED33FD4007985006D5F0F222C398FD63
:050912000FD5F0EA2200
:00000001FF
