:03094B000109059A
:0E093400EFD394004008007E2BDEFE1F80F201
:010942002292
:10092000D288C2A8D2AF53A0F8C2A4C2A3D2A3C295
:04093000A30209080D
:0509520012092080FEE7
:03000B000208CE1A
:1008CE00C0E0C0F0C0D075D000C006C007C2A8D22C
:1008DE00A4858008E5088509F0A475F0FF84F50A63
:1008EE00C2A47F64120934D2A8C2A3D2A3C2A3D0D9
:0A08FE0007D006D0D0D0F0D0E032D1
:03094E00010D0098
:10090800758920758DFD758BFDD29CD29FD29ED2A4
:080918009DD2ACD28ED2AF22B9
:080943008F993099FDC2992241
:0300230002088C44
:10088C00C0E0C0D0C2AC30982685990CE50D601F35
:10089C00850C0BE50BB4010AD2A8C2A3D2A3C2A348
:1008AC008008E50B7004C2A8C2A3750D00D29DE5AB
:1008BC000CB41405750D01C29DC298D2ACD0D0D029
:0208CC00E03218
:03000000020800F3
:0C080000787FE4F6D8FD75810D020847F2
:10080C00020952E493A3F8E493A34003F68001F2A7
:10081C0008DFF48029E493A3F85407240CC8C333ED
:10082C00C4540F4420C8834004F456800146F6DFBC
:10083C00E4800B010204081020408090094BE47EF8
:10084C00019360BCA3FF543F30E509541FFEE493B1
:10085C00A360010ECF54C025E060A840B8E493A378
:10086C00FAE493A3F8E493A3C8C582C8CAC583CAA3
:10087C00F0A3C8C582C8CAC583CADFE9DEE780BE5B
:0109510000A5
:00000001FF
