:03093500010905B0
:10091D00D288D2A8D2AF53A0F8C2A4C2A302090AAA
:05093C0012091D80FE00
:03000B0002088C5C
:10088C00C0E0C0F0C083C082C0D075D000C000C032
:10089C0001C002C003C004C005C006C007C2A8D274
:1008AC00A4858008C2A4AF0812092DD2A8D007D005
:1008BC0006D005D004D003D002D001D000D0D0D0C7
:0808CC0082D083D0F0D0E032AD
:03093800010D00AE
:10090A00758920758DFD758BFD7598F0D2ACD28EE8
:03091A00D2AF2237
:08092D008F993099FDC2992257
:030023000208D4FC
:1008D400C0E0C0D0C2AC30981A85990CE50D601305
:1008E400850C0BE50BB40106C2A3D2A3C2A3750DFC
:1008F40000C29DE50CB43005750D01C29DC298D2AD
:06090400ACD0D0D0E032BF
:03000000020800F3
:0C080000787FE4F6D8FD75810D020847F2
:10080C0002093CE493A3F8E493A34003F68001F2BD
:10081C0008DFF48029E493A3F85407240CC8C333ED
:10082C00C4540F4420C8834004F456800146F6DFBC
:10083C00E4800B0102040810204080900935E47E0E
:10084C00019360BCA3FF543F30E509541FFEE493B1
:10085C00A360010ECF54C025E060A840B8E493A378
:10086C00FAE493A3F8E493A3C8C582C8CAC583CAA3
:10087C00F0A3C8C582C8CAC583CADFE9DEE780BE5B
:01093B0000BB
:00000001FF
